:020000040000FA
:100000000C9462000C948A000C948A000C948A0070
:100010000C948A000C948A000C948A000C948A0038
:100020000C948A000C948A000C948A000C948A0028
:100030000C948A000C948A000C948A000C948A0018
:100040000C9472040C948A000C948A000C948A001C
:100050000C948A000C948A000C948A000C948A00F8
:100060000C94BC040C948A000000000023002600BD
:10007000290000000000240027002A0000000000E2
:10008000250028002B0004040404040404040202D4
:100090000202020203030303030301020408102007
:1000A0004080010204081020010204081020000012
:1000B0000008000201000003040700000000000027
:1000C0000000200611241FBECFEFD8E0DEBFCDBF59
:1000D00011E0A0E0B1E0E0E8F0E102C005900D928F
:1000E000A036B107D9F722E0A0E6B1E001C01D9229
:1000F000AC33B207E1F710E0C2E6D0E004C02197CC
:10010000FE010E943808C136D107C9F70E94410696
:100110000C943E080C94000090E0FC01E255FF4F67
:100120002491FC01E656FF4F3491FC01EA57FF4F42
:10013000E491EE23C9F0222339F0233001F1A8F431
:10014000213019F1223029F1F0E0EE0FFF1FE458C1
:10015000FF4FA591B4918FB7F894EC91611126C02F
:1001600030953E233C938FBF08952730A9F0283067
:10017000C9F0243049F7809180008F7D03C08091C1
:1001800080008F7780938000DFCF84B58F7784BD28
:10019000DBCF84B58F7DFBCF8091B0008F778093CC
:1001A000B000D2CF8091B0008F7DF9CF3E2BDACF57
:1001B000CF93DF9390E0FC01E656FF4F24918A57DE
:1001C0009F4FFC0184918823D1F090E0880F991F04
:1001D000FC01EE58FF4FA591B491FC01E458FF4F8C
:1001E000C591D49161110EC09FB7F8948C91E22F04
:1001F000E0958E238C932881E223E8839FBFDF91D3
:10020000CF9108958FB7F894EC91E22BEC938FBFC8
:10021000F6CF3FB7F89480911F0290912002A091F1
:100220002102B091220226B5A89B05C02F3F19F0EC
:100230000196A11DB11D3FBFBA2FA92F982F882766
:10024000BC01CD01620F711D811D911D42E0660F41
:10025000771F881F991F4A95D1F708958F929F9213
:10026000AF92BF92CF92DF92EF92FF924B015C016F
:100270000E9409016B017C010E9409016C197D0932
:100280008E099F09683E734081059105A8F321E01E
:10029000821A9108A108B10888EEC80E83E0D81E22
:1002A000E11CF11C81149104A104B10429F7FF9011
:1002B000EF90DF90CF90BF90AF909F908F90089578
:1002C00008950895AF92BF92CF92DF92EF92FF927E
:1002D0000F931F93CF93DF936C017B018B01040F6E
:1002E000151FEB015E01AE18BF08C017D10759F00A
:1002F0006991D601ED91FC910190F081E02DC6014C
:100300000995892B79F7C501DF91CF911F910F9145
:10031000FF90EF90DF90CF90BF90AF900895209125
:10032000C801260F3327331F21323105ECF4209109
:10033000EC01FC0190E080E0243069F082E0089557
:10034000A091C8012191AC0148555E4FA40FB52F73
:10035000B11D2C930196861798F38091C801680F00
:100360006093C80180E0089581E008951092EC0147
:1003700081E08093EE011092ED0161E082E10E9444
:100380008C0061E083E10E948C00E9EBF0E0808169
:100390008E7F808380818D7F808388E48093B80006
:1003A00085E48093BC000895CF93DF9391E0909310
:1003B000A7018823B9F0C091B800D091BA0080910C
:1003C000BC008A7B8093BC0060E082E10E948C00CC
:1003D00060E083E10E948C000E94B601D093BA00D5
:1003E000C093B800DF91CF9108950895E09119026C
:1003F00080911802E81730F4F0E0EE57FE4F80814C
:1004000090E008958FEF9FEF0895909119028091E9
:1004100018022FEF3FEF981748F4E92FF0E0EE575E
:10042000FE4F208130E09F5F90931902C90108952B
:100430008091180290911902891B990B0895CF920F
:10044000DF92EF92FF920F931F93CF93DF937C0184
:10045000CB018A0120918101222389F0EB016B01FC
:10046000C40ED51ECC15DD0569F06991D701ED915B
:10047000FC910190F081E02DC7010995F3CF642F25
:100480000E948F01C801DF91CF911F910F91FF90C2
:10049000EF90DF90CF900895CF93DF931F92CDB769
:1004A000DEB76983209181012223F9F020911602A1
:1004B000203258F021E030E0FC013383228390E0C9
:1004C00080E00F90DF91CF91089580911702E82F7F
:1004D000F0E0EF59FE4F998190838F5F8093170270
:1004E0008093160281E090E0ECCF61E0CE010196AE
:1004F0000E948F01F7CFCF92DF92EF92FF920F937E
:100500001F93CF93DF93FC01C48121E020938101ED
:10051000C093600110921702109216028485682B16
:1005200083E292E00E944C02D0911602D13208F090
:1005300092C00E9409016B017C018091EC01811144
:1005400065C082E08093EC0181E08093EE018FEF43
:100550008093EB0110921002D0930F02A1E6B1E05C
:10056000EFEEF1E080E0D81385C010921102809187
:100570001102CC0FC82BC09311028091ED01813084
:1005800009F07CC01092ED010E9409016B017C0111
:10059000809111028093BB008091A3019091A401EE
:1005A000A091A501B091A601892B8A2B8B2B99F0E4
:1005B0000E9409010091A3011091A4012091A501BD
:1005C0003091A6016C197D098E099F09061717073E
:1005D00028073907E0F18091BC0083FDD9CF85EC75
:1005E0008093BC000E9409016B017C018091EC01A9
:1005F000823009F445C08091EB018F3F61F1809119
:10060000EB01803241F18091EB0125C08091A30183
:100610009091A401A091A501B091A601892B8A2BEC
:100620008B2B09F48ACF0E9409010091A30110913C
:10063000A4012091A5013091A6016C197D098E09B4
:100640009F09061717072807390708F076CF80910A
:10065000A2010E94D4011092170210921602109269
:100660008101DF91CF911F910F91FF90EF90DF906B
:10067000CF9008959D9191938F5F75CF85EEB0CF08
:100680008091A3019091A401A091A501B091A60130
:10069000892B8A2B8B2B09F4A9CF0E940901009189
:1006A000A3011091A4012091A5013091A6016C191C
:1006B0007D098E099F09061717072807390708F0D3
:1006C00095CFC5CF089590E080E008958F929F92D6
:1006D000AF92BF920F931F93CF93DF93CDB7DEB747
:1006E000A1970FB6F894DEBF0FBECDBF19A242305E
:1006F00008F44AE08E010F5D1F4F842E912CB12C1F
:10070000A12CA50194010E94F707E62FB901CA01A7
:10071000EA3044F5E05DD801EE938D01232B242BC4
:10072000252B79F790E080E0109769F0FD010190AA
:100730000020E9F73197AF014A1B5B0BBD018FE247
:1007400092E00E946201A1960FB6F894DEBF0FBE40
:10075000CDBFDF91CF911F910F91BF90AF909F9030
:100760008F900895E95CD7CFFC0101900020E9F754
:100770003197AF01481B590BBC018FE292E00C94FA
:1007800062010F931F93CF938C01C62F0E947B02AF
:100790006C2F6460C8010E947B026C2F6B7FC801C4
:1007A0000E947B0283EC90E00197F1F7CF911F91BB
:1007B0000F9108950F931F93CF93DF938C01D62F42
:1007C000C42F607F642B0E94C10380E1D89FB001D9
:1007D00011246C2BC801DF91CF911F910F910C94C4
:1007E000C103CF93DF93CDB7DEB728970FB6F89448
:1007F000DEBF0FBECDBF98E0E0E0F1E0DE01119674
:1008000001900D929A95E1F790913702981708F4AC
:100810008FEF90E0880F991F21E030E02C0F3D1FF3
:10082000820F931FFC016081606840E08FE292E0DC
:1008300028960FB6F894DEBF0FBECDBFDF91CF91E3
:100840000C94DA0340E061E08FE292E00E94DA0368
:100850008BE39FE10197F1F780913802882319F02B
:1008600080E00C94F103089541E00E94DA0381E0F6
:1008700090E0089585ED8093BC008091A301909154
:10088000A401A091A501B091A6010796A11DB11DDB
:1008900023E0B695A795979587952A95D1F720914E
:1008A000BC0024FD03C01092EC0108954091A30107
:1008B0005091A4016091A5017091A601452B462B92
:1008C000472B69F30097A105B10541F02AE22A956B
:1008D000F1F700C00197A109B109E1CF8091A20110
:1008E0000C94D4011F920F920FB60F9211242F93E4
:1008F0003F938F939F93AF93BF9380911B029091EF
:100900001C02A0911D02B0911E0230911A0223E038
:10091000230F2D3758F50196A11DB11D20931A0202
:1009200080931B0290931C02A0931D02B0931E02A1
:1009300080911F0290912002A0912102B091220289
:100940000196A11DB11D80931F0290932002A093D8
:100950002102B0932202BF91AF919F918F913F915D
:100960002F910F900FBE0F901F90189526E8230F20
:100970000296A11DB11DD2CF1F920F920FB60F92FA
:1009800011242F933F934F935F936F937F938F9394
:100990009F93AF93BF93EF93FF938091B900887FAC
:1009A000803609F44AC0F0F5883209F4A7C018F57A
:1009B000803109F49BC0B8F4882309F4F9C0883069
:1009C00009F494C0FF91EF91BF91AF919F918F91E6
:1009D0007F916F915F914F913F912F910F900FBE3B
:1009E0000F901F901895883109F488C0803251F714
:1009F0008093EB0114C0803409F49DC040F480332F
:100A0000B9F38833F9F68093EB0185ECB0C08035FB
:100A100009F485C0883509F496C0883499F60E9497
:100A20003A04D0CF883909F48CC038F5883729F0DA
:100A300050F4883611F0803729F683E08093EC017A
:100A40001092EA0157C0883809F47BC0803919F048
:100A5000803809F0B7CF8091EA01803208F071C088
:100A6000E091EA0181E08E0F8093EA018091BB0062
:100A7000F0E0E653FE4F80833DC0803B39F0E0F468
:100A8000803A09F479C0883A09F09CCF84E08093D9
:100A9000EC011092C9011092C801E0911402F0918A
:100AA000150209958091C80181110FC081E08093E2
:100AB000C8011092A80109C0803C09F4A6CF883C67
:100AC00009F4A3CF883B09F07DCFE091C90181E013
:100AD0008E0F8093C901F0E0E855FE4F808180932E
:100AE000BB009091C9018091C80129C08091110279
:100AF0008093BB0085EC8093BC0064CF9091100282
:100B000080910F02981758F5E091100281E08E0F46
:100B100080931002F0E0E151FE4F8081E9CFE09137
:100B2000100281E08E0F809310028091BB00F0E0F4
:100B3000E151FE4F80839091100280910F0298172F
:100B4000C8F285E8D8CFE091100281E08E0F809343
:100B500010028091BB00F0E0E151FE4F8083809154
:100B6000EE0181115CCF81E08093ED0184EA8093F6
:100B7000BC001092EC0126CF85EC8093BC00109253
:100B8000EC018091EA01803230F4E091EA01F0E07A
:100B9000E653FE4F10826091EA0170E0E09112028C
:100BA000F09113028AEC91E009951092EA010ACFC4
:100BB0001092EB0134CFCF92DF92EF92FF920F931E
:100BC0001F93E82FF92F05C00150110921093109A0
:100BD00061F1908196239417B9F305C00150110972
:100BE0002109310911F1908196239413F7CFC12C7B
:100BF000D12CE12CF12C0AC08FEFC81AD80AE80AD0
:100C0000F80A0C151D052E053F0579F08081862315
:100C1000841791F36C2D7D2D8E2D9F2D1F910F919B
:100C2000FF90EF90DF90CF90089560E070E080E05B
:100C300090E01F910F91FF90EF90DF90CF9008957B
:100C4000E3E2F2E01382128288EE93E0A0E0B0E0EB
:100C500084839583A683B7838CE091E0918380831E
:100C6000EFE2F2E0138212828EE191E091838083C1
:100C7000118687E2848380E1828782E083871486FD
:100C80000895789484B5826084BD84B5816084BD04
:100C900085B5826085BD85B5816085BD80916E001A
:100CA000816080936E00109281008091810082604B
:100CB0008093810080918100816080938100809188
:100CC00080008160809380008091B1008460809377
:100CD000B1008091B00081608093B00080917A0073
:100CE000846080937A0080917A00826080937A0099
:100CF00080917A00816080937A0080917A00806888
:100D000080937A001092C10010921902109218027A
:100D100010921702109216020E94B60180E691E02E
:100D2000909315028093140281E691E09093130250
:100D3000809312021092340280913A02823018F0AD
:100D400098E0909334028093370262E370E080E091
:100D500090E00E942E0160913B028FE292E00E949F
:100D60007B0268EE73E080E090E00E942E0160E379
:100D70008FE292E00E94C103CBE4D6E4CE0101975A
:100D8000F1F760E38FE292E00E94C1032197F1F74F
:100D900060E38FE292E00E94C10383E592E0019755
:100DA000F1F760E28FE292E00E94C10360913402A9
:100DB000606240E08FE292E00E94DA0384E0809378
:100DC000350240E06CE08FE292E00E94DA030E947C
:100DD000220482E08093360240E066E08FE292E0F7
:100DE0000E94DA0340E062E08FE292E00E94DA03C0
:100DF0008BE39FE10197F1F788E080933B0260E08D
:100E00008FE292E00E947B0286E291E00E94B403AE
:100E100081E00E94F10385E391E00E94B40361E068
:100E20008EE00E94D80060E08FE00E94D80061E070
:100E30008DE00E94D80061E08CE00E94D80061E063
:100E40008BE00E94D80060E08DE00E948C0060E0A2
:100E50008CE00E948C0060E08BE00E948C0060EDD2
:100E600077E080E090E00E942E01C3E0D0E023E232
:100E7000A22EB12C35E9232E30E0332E4AE3442E46
:100E8000512C612C712C50E0852E50E0952E60E0A5
:100E90008EE00E948C00CE010197F1F761E08EE0B8
:100EA0000E948C00C5010197F1F760E08EE00E947E
:100EB0008C00E9EAF0E06491F1018491E82FF0E020
:100EC000EE0FFF1FE859FF4F8591949100E412E463
:100ED0002FE030E0462F0E94DB056115710581058A
:100EE000910529F06F5F7F4F8F4F9F4F9F70A30138
:100EF00092010E94190869017A01DA01C901029779
:100F0000A109B1098F389140A105B10520F0CC2489
:100F1000CA94DC2C76010E94220480E00E94F10336
:100F200085E491E00E94B40381E02FEFC216D2065F
:100F3000E206F20689F40E94F1038FE491E00E9438
:100F4000B40360E08DE00E948C0060E08CE00E94C1
:100F50008C0060E08BE022C00E94F1034AE0C701F0
:100F6000B6010E9466038CE591E00E94B40360E044
:100F70008DE00E948C0060E08CE00E948C0060E0BC
:100F80008BE00E948C00D701C6010197A109B1092D
:100F90000A97A105B10588F461E08DE00E948C00FC
:100FA00064EF71E080E090E00E942E0181149104D2
:100FB00009F46DCF0E9400006ACFD701C6010B97DC
:100FC000A109B1094497A105B10518F461E08CE0CD
:100FD000E5CF8FE1C81AD108E108F108E2E7CE16A3
:100FE000E1E0DE06E104F104D8F661E0B3CFA1E26E
:100FF0001A2EAA1BBB1BFD010DC0AA1FBB1FEE1F93
:10100000FF1FA217B307E407F50720F0A21BB30BDD
:10101000E40BF50B661F771F881F991F1A9469F759
:1010200060957095809590959B01AC01BD01CF01B5
:101030000895052E97FB1EF400940E94300857FD7A
:1010400007D00E94F70707FC03D04EF40C94300839
:1010500050954095309521953F4F4F4F5F4F0895E4
:1010600090958095709561957F4F8F4F9F4F089514
:10107000EE0FFF1F0590F491E02D0994F894FFCF37
:101080000000400014005400000000004C021F0249
:101090006303F50118020502F601000000003404A4
:1010A00062016303620344697374616E6365204D7A
:1010B0006574657200496E697469616C697A696EFC
:1010C000672E2E2E0044697374616E63653A004F7B
:1010D0007574206F662052616E67650020636D0035
:107E0000112484B714BE81FFF0D085E080938100F7
:107E100082E08093C00088E18093C10086E0809377
:107E2000C20080E18093C4008EE0C9D0259A86E02C
:107E300020E33CEF91E0309385002093840096BBD3
:107E4000B09BFECF1D9AA8958150A9F7CC24DD24C4
:107E500088248394B5E0AB2EA1E19A2EF3E0BF2EE7
:107E6000A2D0813461F49FD0082FAFD0023811F036
:107E7000013811F484E001C083E08DD089C08234E0
:107E800011F484E103C0853419F485E0A6D080C0E4
:107E9000853579F488D0E82EFF2485D0082F10E0AE
:107EA000102F00270E291F29000F111F8ED06801E7
:107EB0006FC0863521F484E090D080E0DECF843638
:107EC00009F040C070D06FD0082F6DD080E0C81688
:107ED00080E7D80618F4F601B7BEE895C0E0D1E017
:107EE00062D089930C17E1F7F0E0CF16F0E7DF06D8
:107EF00018F0F601B7BEE89568D007B600FCFDCFD4
:107F0000A601A0E0B1E02C9130E011968C91119780
:107F100090E0982F8827822B932B1296FA010C0160
:107F200087BEE89511244E5F5F4FF1E0A038BF0790
:107F300051F7F601A7BEE89507B600FCFDCF97BE46
:107F4000E89526C08437B1F42ED02DD0F82E2BD052
:107F50003CD0F601EF2C8F010F5F1F4F84911BD097
:107F6000EA94F801C1F70894C11CD11CFA94CF0C13
:107F7000D11C0EC0853739F428D08EE10CD085E9AC
:107F80000AD08FE07ACF813511F488E018D01DD067
:107F900080E101D065CF982F8091C00085FFFCCF94
:107FA0009093C60008958091C00087FFFCCF809118
:107FB000C00084FD01C0A8958091C6000895E0E648
:107FC000F0E098E1908380830895EDDF803219F02E
:107FD00088E0F5DFFFCF84E1DECF1F93182FE3DFCA
:107FE0001150E9F7F2DF1F91089580E0E8DFEE27F6
:047FF000FF270994CA
:027FFE00040479
:00000001FF
