:020000040000FA
:100000000C9462000C948A000C948A000C948A0070
:100010000C948A000C948A000C948A000C948A0038
:100020000C948A000C948A000C948A000C948A0028
:100030000C948A000C948A000C948A000C948A0018
:100040000C941B060C948A000C948A000C948A0071
:100050000C948A000C948A000C948A000C948A00F8
:100060000C9465060C948A00000000002300260012
:10007000290000000000240027002A0000000000E2
:10008000250028002B0004040404040404040202D4
:100090000202020203030303030301020408102007
:1000A0004080010204081020010204081020000012
:1000B0000008000201000003040700000000000027
:1000C0000000C90711241FBECFEFD8E0DEBFCDBFAF
:1000D00011E0A0E0B1E0ECE1F0E202C005900D9289
:1000E000A636B107D9F722E0A6E6B1E001C01D921D
:1000F000A53AB207E1F710E0C2E6D0E004C02197CC
:10010000FE010E94140EC136D107C9F70E9468088B
:100110000C940C100C94000090E0FC01E255FF4F91
:100120002491FC01E656FF4F3491FC01EA57FF4F42
:10013000E491EE23C9F0222339F0233001F1A8F431
:10014000213019F1223029F1F0E0EE0FFF1FE458C1
:10015000FF4FA591B4918FB7F894EC91611126C02F
:1001600030953E233C938FBF08952730A9F0283067
:10017000C9F0243049F7809180008F7D03C08091C1
:1001800080008F7780938000DFCF84B58F7784BD28
:10019000DBCF84B58F7DFBCF8091B0008F778093CC
:1001A000B000D2CF8091B0008F7DF9CF3E2BDACF57
:1001B000CF93DF9390E0FC01E656FF4F24918A57DE
:1001C0009F4FFC0184918823D1F090E0880F991F04
:1001D000FC01EE58FF4FA591B491FC01E458FF4F8C
:1001E000C591D49161110EC09FB7F8948C91E22F04
:1001F000E0958E238C932881E223E8839FBFDF91D3
:10020000CF9108958FB7F894EC91E22BEC938FBFC8
:10021000F6CF3FB7F89480912C0290912D02A091D7
:100220002E02B0912F0226B5A89B05C02F3F19F0D2
:100230000196A11DB11D3FBFBA2FA92F982F882766
:10024000BC01CD01620F711D811D911D42E0660F41
:10025000771F881F991F4A95D1F708958F929F9213
:10026000AF92BF92CF92DF92EF92FF924B015C016F
:100270000E9409016B017C010E9409016C197D0932
:100280008E099F09683E734081059105A8F321E01E
:10029000821A9108A108B10888EEC80E83E0D81E22
:1002A000E11CF11C81149104A104B10429F7FF9011
:1002B000EF90DF90CF90BF90AF909F908F90089578
:1002C00008950895AF92BF92CF92DF92EF92FF927E
:1002D0000F931F93CF93DF936C017B018B01040F6E
:1002E000151FEB015E01AE18BF08C017D10759F00A
:1002F0006991D601ED91FC910190F081E02DC6014C
:100300000995892B79F7C501DF91CF911F910F9145
:10031000FF90EF90DF90CF90BF90AF900895089539
:100320002091A701260F3327331F21323105ECF42A
:100330002091F001FC0190E080E0243069F082E03F
:100340000895A091A7012191AC0149575E4FA40FD8
:10035000B52FB11D2C930196861798F38091A701B4
:10036000680F6093A70180E0089581E008951092DE
:10037000F00181E08093EF011092CA0161E082E117
:100380000E948C0061E083E10E948C00E9EBF0E0C8
:1003900080818E7F808380818D7F808388E48093BD
:1003A000B80085E48093BC000895CF93DF9391E07B
:1003B000909386018823B9F0C091B800D091BA001B
:1003C0008091BC008A7B8093BC0060E082E10E9447
:1003D0008C0060E083E10E948C000E94B701D09302
:1003E000BA00C093B800DF91CF9108950895E091CD
:1003F0001F0280911E02E81730F4F0E0EA59FE4F28
:10040000808190E008958FEF9FEF089590911F02F3
:1004100080911E022FEF3FEF981748F4E92FF0E08C
:10042000EA59FE4F208130E09F5F90931F02C9017F
:10043000089580911E0290911F02891B990B0895C7
:10044000CF92DF92EF92FF920F931F93CF93DF93A0
:100450007C01CB018A012091F601222389F0EB0176
:100460006B01C40ED51ECC15DD0569F06991D7016D
:10047000ED91FC910190F081E02DC7010995F3CF3A
:10048000642F0E949001C801DF91CF911F910F91BD
:10049000FF90EF90DF90CF900895CF93DF931F925E
:1004A000CDB7DEB769832091F6012223F9F02091C0
:1004B0001C02203258F021E030E0FC01338322831B
:1004C00090E080E00F90DF91CF91089580911D0220
:1004D000E82FF0E0E950FE4F998190838F5F809381
:1004E0001D0280931C0281E090E0ECCF61E0CE0120
:1004F00001960E949001F7CFCF92DF92EF92FF9288
:100500000F931F93CF93DF93FC01C48121E02093CD
:10051000F601C093170210921D0210921C028485EE
:10052000682B80E392E00E944D02D0911C02D132F0
:1005300008F092C00E9409016B017C018091F001DA
:10054000811165C082E08093F00181E08093EF012A
:100550008FEF8093EE011092ED01D093EC01A7EFA5
:10056000B1E0ECECF1E080E0D81385C01092CB0153
:100570008091CB01CC0FC82BC093CB018091CA01D5
:10058000813009F07CC01092CA010E9409016B0100
:100590007C018091CB018093BB008091F20190910E
:1005A000F301A091F401B091F501892B8A2B8B2BDB
:1005B00099F00E9409010091F2011091F30120913C
:1005C000F4013091F5016C197D098E099F09061718
:1005D000170728073907E0F18091BC0083FDD9CFC8
:1005E00085EC8093BC000E9409016B017C01809125
:1005F000F001823009F445C08091EE018F3F61F136
:100600008091EE01803241F18091EE0125C0809110
:10061000F2019091F301A091F401B091F501892BC1
:100620008A2B8B2B09F48ACF0E9409010091F201D9
:100630001091F3012091F4013091F5016C197D09BD
:100640008E099F09061717072807390708F076CF84
:100650008091F1010E94D50110921D0210921C029E
:100660001092F601DF91CF911F910F91FF90EF90C3
:10067000DF90CF9008959D9191938F5F75CF85EE18
:10068000B0CF8091F2019091F301A091F401B0916B
:10069000F501892B8A2B8B2B09F4A9CF0E94090124
:1006A0000091F2011091F3012091F4013091F501D4
:1006B0006C197D098E099F09061717072807390746
:1006C00008F095CFC5CF90E080E00895CF92DF92FB
:1006D000EF92FF920F931F93CF93DF9300D0CDB78C
:1006E000DEB769834A83880F991F009192021091A7
:1006F0009302000F111FECE3F2E09F012C533240F4
:100700002017310714F41192F8CF2981FC01E45C21
:10071000FD4F21838A81808360E0809190020E9456
:100720008C001016110604F501501109F801E45C63
:10073000FD4FE080D0908E02C0908C0288E0F82EB1
:100740006E2D661F6627661F8C2D0E948C00EE0C96
:1007500061E08D2D0E948C0060E08D2D0E948C0048
:10076000FA94F110EDCFDDCF61E0809190020F900F
:100770000F90DF91CF911F910F91FF90EF90DF903D
:10078000CF900C948C00EF92FF920F931F93CF9316
:100790007C018C0183E0000F111F8A95E1F7045B57
:1007A0001D4FC1E0F80111928F0140E06C2FC7018D
:1007B0000E946603CF5FC930A9F7CF911F910F91B7
:1007C000FF90EF9008950F931F93CF938C01C62F46
:1007D0000E947C026C2F6460C8010E947C026C2F16
:1007E0006B7FC8010E947C0283EC90E00197F1F7D7
:1007F000CF911F910F9108950F931F93CF93DF9384
:100800008C01D62FC42F607F642B0E94E30380E10C
:10081000D89FB00111246C2BC801DF91CF911F919B
:100820000F910C94E303CF93DF93CDB7DEB72897F6
:100830000FB6F894DEBF0FBECDBF98E0E2E1F1E065
:10084000DE01119601900D929A95E1F790919C022C
:10085000981708F48FEF90E0880F991F21E030E09F
:100860002C0F3D1F820F931FFC016081606840E0E8
:1008700084E992E028960FB6F894DEBF0FBECDBF94
:10088000DF91CF910C94FC0340E061E084E992E0B9
:100890000E94FC038BE39FE10197F1F780919D0299
:1008A000882319F080E00C941304089541E00E941D
:1008B000FC0381E090E00895FC0101900020E9F73D
:1008C0003197AF01481B590BBC0184E992E00C94AD
:1008D000620110922602109221021092200283E0FF
:1008E00090E0909307018093060187E090E0909359
:1008F00003018093020180E991E0909301018093CC
:1009000000010E94940B24E030E040E050E00E949F
:100910001C0D70930501609304010E94440480E063
:100920000E94130488E391E00E945C0481E00E942D
:10093000130486E491E00E945C0461E088E00E9478
:100940008C0060E086E00E948C0060E087E00E94FE
:100950008C0068EE73E080E090E00C942E010F9321
:100960001F93CF93DF93EC0188819981009759F011
:100970002A813B812617370730F081E0DF91CF9144
:100980001F910F9108958B016F5F7F4F0E943F0F62
:10099000009759F0998388831B830A832C813D81BA
:1009A000232B59F7FC011082E8CF80E0E7CFCF93EB
:1009B000DF93EC0188819981009711F00E94B60EB7
:1009C000198218821D821C821B821A82DF91CF91AC
:1009D0000895CF93DF93EC01198218821B821A824B
:1009E0001D821C8267E070E00E94AF04811105C087
:1009F000CE01DF91CF910C94D70487E090E09D83E6
:100A00008C836FE471E088819981DF91CF910C94A0
:100A10000510CF92DF92EF92FF920F931F93CF9327
:100A2000DF93CDB7DEB762970FB6F894DEBF0FBE87
:100A3000CDBF8C01CB01F80111821082138212828A
:100A4000158214824AE09E012F5F3F4F6901B90170
:100A50000E94EC0BF60101900020E9F731977F012D
:100A6000EC18FD08B701C8010E94AF04811112C043
:100A7000C8010E94D70462960FB6F894DEBF0FBE7D
:100A8000CDBFDF91CF911F910F91FF90EF90DF903D
:100A9000CF900895F801F582E482B60180819181BA
:100AA0000E940510E8CFEF92FF920F931F93CF9310
:100AB000DF93EC01FB01E080F180E114F10411F11E
:100AC0000481158101151105A9F08C819D81080F04
:100AD000191FB801CE010E94AF04882399F0288124
:100AE00039818C819D81B701820F931F0E9405106F
:100AF0001D830C83CE01DF91CF911F910F91FF9049
:100B0000EF900895CE010E94D704F4CFFC018081BC
:100B10009181009711F00C94B60E089585ED8093A5
:100B2000BC008091F2019091F301A091F401B09189
:100B3000F5010796A11DB11D23E0B695A7959795E0
:100B400087952A95D1F72091BC0024FD03C010920F
:100B5000F00108954091F2015091F3016091F40188
:100B60007091F501452B462B472B69F30097A105A2
:100B7000B10541F02AE22A95F1F700C00197A109D9
:100B8000B109E1CF8091F1010C94D5010F931F932E
:100B900060E08AE00E948C0083E090E00197F1F72A
:100BA00061E08AE00E948C0083E290E00197F1F717
:100BB00060E08AE00E948C00E3EAF0E06491EFE8F4
:100BC000F0E0E491F0E0EE0FFF1FE859FF4F859150
:100BD000949108EA11E620E030E0462F0E94840755
:100BE000611571058105910529F06F5F7F4F8F4F6A
:100BF0009F4F9F700E94230C28E23EE74CE05DE38C
:100C00000E945E0C20E030E040E05FE30E945E0C5A
:100C10000E94B60D8B019C01015011092109310977
:100C20000F3811402105310518F06FEF7FEFCB0130
:100C30001F910F9108951F920F920FB60F921124DA
:100C40002F933F938F939F93AF93BF9380912802ED
:100C500090912902A0912A02B0912B023091270293
:100C600023E0230F2D3758F50196A11DB11D2093C8
:100C700027028093280290932902A0932A02B0931E
:100C80002B0280912C0290912D02A0912E02B09106
:100C90002F020196A11DB11D80932C0290932D026D
:100CA000A0932E02B0932F02BF91AF919F918F918D
:100CB0003F912F910F900FBE0F901F90189526E82F
:100CC000230F0296A11DB11DD2CF1F920F920FB616
:100CD0000F9211242F933F934F935F936F937F93C2
:100CE0008F939F93AF93BF93EF93FF938091B9003E
:100CF000887F803609F44AC0F0F5883209F4A7C02D
:100D000018F5803109F49BC0B8F4882309F4F9C0C0
:100D1000883009F494C0FF91EF91BF91AF919F91FA
:100D20008F917F916F915F914F913F912F910F9094
:100D30000FBE0F901F901895883109F488C080323B
:100D400051F78093EE0114C0803409F49DC040F443
:100D50008033B9F38833F9F68093EE0185ECB0C0A7
:100D6000803509F485C0883509F496C0883499F631
:100D70000E948E05D0CF883909F48CC038F58837A9
:100D800029F050F4883611F0803729F683E08093FB
:100D9000F0011092C90157C0883809F47BC080392E
:100DA00019F0803809F0B7CF8091C901803208F07E
:100DB00071C0E091C90181E08E0F8093C9018091DB
:100DC000BB00F0E0E755FE4F80833DC0803B39F02B
:100DD000E0F4803A09F479C0883A09F09CCF84E0C5
:100DE0008093F0011092A8011092A701E0911A02DD
:100DF000F0911B0209958091A70181110FC081E03C
:100E00008093A7011092870109C0803C09F4A6CF06
:100E1000883C09F4A3CF883B09F07DCFE091A8017D
:100E200081E08E0F8093A801F0E0E957FE4F8081AA
:100E30008093BB009091A8018091A70129C0809167
:100E4000CB018093BB0085EC8093BC0064CF909174
:100E5000ED018091EC01981758F5E091ED0181E0EA
:100E60008E0F8093ED01F0E0E453FE4F8081E9CFD7
:100E7000E091ED0181E08E0F8093ED018091BB0048
:100E8000F0E0E453FE4F80839091ED018091EC01FE
:100E90009817C8F285E8D8CFE091ED0181E08E0F78
:100EA0008093ED018091BB00F0E0E453FE4F80831E
:100EB0008091EF0181115CCF81E08093CA0184EAC7
:100EC0008093BC001092F00126CF85EC8093BC008B
:100ED0001092F0018091C901803230F4E091C90193
:100EE000F0E0E755FE4F10826091C90170E0E0919B
:100EF0001802F091190289EA91E009951092C9014E
:100F00000ACF1092EE0134CFCF92DF92EF92FF9290
:100F10000F931F93E82FF92F05C0015011092109E4
:100F2000310961F1908196239417B9F305C00150FE
:100F300011092109310911F1908196239413F7CFFA
:100F4000C12CD12CE12CF12C0AC08FEFC81AD80A81
:100F5000E80AF80A0C151D052E053F0579F0808179
:100F60008623841791F36C2D7D2D8E2D9F2D1F913F
:100F70000F91FF90EF90DF90CF90089560E070E0C8
:100F800080E090E01F910F91FF90EF90DF90CF9065
:100F90000895CF93DF93109233021092320288EEBD
:100FA00093E0A0E0B0E08093340290933502A093E8
:100FB0003602B09337028EE191E090933102809334
:100FC0003002109297021092960280E391E0909383
:100FD00095028093940210929D0287E2809398027A
:100FE00080E180939E0282E080939F021092A00293
:100FF000C5E0D0E0D0938D02C0938C0283E090E0F6
:1010000090938F0280938E0284E090E090939102FF
:101010008093900281E090E09093930280939202FB
:1010200061E085E00E94D80061E080918E020E941C
:10103000D80061E0809190020E94D80061E0809128
:1010400090020E948C00D0938D02C0938C02ECE43D
:10105000F2E0119282E0EC38F807D9F7D0E0C0E076
:101060008091920290919302C817D90774F540E0DD
:101070006FE0CE010E9466038091920290919302EC
:10108000C817D9072CF447E06BE0CE010E94660335
:1010900040E069E0CE010E94660380919202909147
:1010A0009302C817D9071CF4CE010E94C303809194
:1010B000920290919302C817D9072CF440E06CE09B
:1010C000CE010E9466032196CBCFDF91CF91089588
:1010D000CF93DF93CDB7DEB72C970FB6F894DEBF72
:1010E0000FBECDBF789484B5826084BD84B5816025
:1010F00084BD85B5826085BD85B5816085BD8091E3
:101100006E00816080936E0010928100809181005A
:101110008260809381008091810081608093810052
:10112000809180008160809380008091B100846014
:101130008093B1008091B00081608093B000809175
:101140007A00846080937A0080917A008260809334
:101150007A0080917A00816080937A0080917A0091
:10116000806880937A001092C10010921F02109242
:101170001E0210921D0210921C020E94B70180E60E
:1011800091E090931B0280931A0281E691E0909384
:101190001902809318021092990280919F02823066
:1011A00018F098E09093990280939C0262E370E0BB
:1011B00080E090E00E942E016091A00284E992E01C
:1011C0000E947C0268EE73E080E090E00E942E01B5
:1011D00060E384E992E00E94E3030BE416E4C801B3
:1011E0000197F1F760E384E992E00E94E303C8010C
:1011F0000197F1F760E384E992E00E94E30383E55D
:1012000092E00197F1F760E284E992E00E94E30343
:1012100060919902606240E084E992E00E94FC03E0
:1012200084E080939A0240E06CE084E992E00E94BE
:10123000FC030E94440482E080939B0240E066E04D
:1012400084E992E00E94FC0340E062E084E992E0DD
:101250000E94FC038BE39FE10197F1F788E0809304
:10126000A00260E084E992E00E947C0280919202F8
:10127000909193021816190634F441E06CE090E066
:1012800080E00E946603809192029091930218166A
:10129000190634F448E06AE090E080E00E946603BA
:1012A00080919202909193021816190624F490E00E
:1012B00080E00E94C30361E08AE00E94D80060E001
:1012C00089E00E94D80061E086E00E94D80061E0D9
:1012D00087E00E94D80061E088E00E94D80082E4A4
:1012E00080937C0080917A00806480937A00809162
:1012F0007A0086FDFCCF6091780070917900072E0E
:10130000000C880B990B611571058105910511F091
:101310000E94E30B0E94690493E2492E512C612C38
:10132000712C20E8C22ED12C34E0832E912CA12CDC
:10133000B12C80E0282E80E0382E80912602882370
:10134000B1F00E94C60565307105810591054CF428
:101350000E94C605161617061806190614F40E94F0
:1013600069042114310449F30E940000E2CF0E9475
:10137000C6059B01AC012550310941095109A9EF6E
:10138000BFEF0E94490DA30192010E941C0D295F2D
:101390003F4F4F4F5F4F2830310514F027E030E0CA
:1013A00037FF02C030E020E03093070120930601B0
:1013B0008FB7F894409128025091290260912A0237
:1013C00070912B028FBF8091220290912302A091F5
:1013D0002402B0912502481B590B6A0B7B0B8091AC
:1013E000000190910101092E000CAA0BBB0B841780
:1013F0009507A607B70708F069C02FB7F894809142
:10140000280290912902A0912A02B0912B022FBFAD
:101410008093220290932302A0932402B09325028A
:1014200080910201909103010197909303018093B1
:101430000201009709F0A6C0209106013091070132
:1014400080910401909105012817390724F0039633
:1014500082179307DCF581E08093260260E088E044
:101460000E948C0061E086E00E948C000E9444048F
:1014700080E00E94130487E591E00E945C0481E013
:101480000E9413046091200270912102CE01079600
:101490000E940905CE0101960E94E904BE01695F20
:1014A0007F4FCE0101960E945305FC014481558176
:1014B0006081718184E992E00E946201CE0101960F
:1014C0000E948605CE0107960E94860580919202B1
:1014D000909193021816190624F490E080E00E947F
:1014E000C303809192029091930218161906BCF4DE
:1014F00080910601909107018830910580F4960152
:1015000002C0359527958A95E2F740914C02422B0F
:1015100040934C0261E090E080E00E94660310E09E
:1015200000E080910401909105010817190724F04B
:1015300003968017910704F580919202909193028F
:1015400018161906CCF460910201709103016830FD
:10155000710590F4FB01E45CFD4F4089C601002E4B
:1015600002C0959587950A94E2F7482B408B6F5FF0
:1015700090E080E00E9466030F5F1F4F0830110566
:1015800081F6EFCE97FFA2CF8091200290912102A9
:101590000196909321028093200227E030E030935F
:1015A0000301209302010E94940BA50194010E9463
:1015B0001C0D7093050160930401009120021091AD
:1015C0002102101611069CF4C80163E070E00E942D
:1015D000EC0D892B61F48091000190910101873914
:1015E00091052CF04997909301018093000181E0CF
:1015F0000E941304B801CE0107960E940905CE018E
:1016000001960E94E904BE01695F7F4FCE010196F9
:101610000E9453058C01FC01E480F580F3E0EF0E9D
:10162000F11CB7010E94AF04882371F1F8012081F9
:1016300031818481958162E671E0820F931F0E945F
:101640000510F801F582E482F8014481558160813A
:10165000718184E992E00E946201CE0101960E94AC
:101660008605CE0107960E94860561E087E00E940C
:101670008C0064E670E080E090E00E942E0160E063
:1016800087E00E948C0022CFC8010E94D704DCCFE3
:101690008F929F92AF92BF92CF92DF92EF92FF9282
:1016A000CF93DF93EC01688179818A819B816115F9
:1016B00071058105910521F464E279ED8BE597E0F0
:1016C0002DE133EF41E050E00E941C0D49015A0129
:1016D0009B01AC01A7EAB1E40E943B0D6B017C01C8
:1016E000ACEEB4EFA50194010E94490DC60ED71EC1
:1016F000E81EF91EF7FE06C081E0C81AD108E1080D
:1017000080E8F80AC882D982EA82FB82C701B60162
:101710009F77DF91CF91FF90EF90DF90CF90BF90B8
:10172000AF909F908F9008958F929F92AF92BF92AB
:10173000CF92DF92EF92FF926091080170910901C0
:1017400080910A0190910B01611571058105910548
:1017500021F464E279ED8BE597E02DE133EF41E090
:1017600050E00E941C0D49015A019B01AC01A7EAFF
:10177000B1E40E943B0D6B017C01ACEEB4EFA5011E
:1017800094010E94490DC60ED71EE81EF91EF7FEF1
:1017900006C081E0C81AD108E10880E8F80AC092C2
:1017A0000801D0920901E0920A01F0920B01C701F1
:1017B000B6019F77FF90EF90DF90CF90BF90AF90F2
:1017C0009F908F9008956093080170930901809312
:1017D0000A0190930B010895BB274A3031F49923F5
:1017E00022F4BDE2909581959F4F0C94F80BBB2796
:1017F000FB015527AA27880F991FAA1FA41710F0CD
:10180000A41B83955051B9F7A05DAA3308F0A95DD8
:10181000A193009779F7B111B1931192CB010C9478
:10182000110CDC01FC01672F71917723E1F73297EE
:1018300004C07C916D9370836291AE17BF07C8F3AB
:101840000895E89409C097FB3EF4909580957095B3
:1018500061957F4F8F4F9F4F9923A9F0F92F96E9FC
:10186000BB279395F695879577956795B795F11171
:10187000F8CFFAF4BB0F11F460FF1BC06F5F7F4F0E
:101880008F4F9F4F16C0882311F096E911C0772320
:1018900021F09EE8872F762F05C0662371F096E829
:1018A000862F70E060E02AF09A95660F771F881FF8
:1018B000DAF7880F9695879597F908950E94710C2D
:1018C0000C94E20C0E94D40C38F00E94DB0C20F047
:1018D000952311F00C94CB0C0C94D10C11240C9486
:1018E000160D0E94F30C70F3959FC1F3950F50E015
:1018F000551F629FF001729FBB27F00DB11D639FC2
:10190000AA27F00DB11DAA1F649F6627B00DA11D67
:10191000661F829F2227B00DA11D621F739FB00D0D
:10192000A11D621F839FA00D611D221F749F33277D
:10193000A00D611D231F849F600D211D822F762F16
:101940006A2F11249F5750409AF0F1F088234AF0F3
:10195000EE0FFF1FBB1F661F771F881F915050405F
:10196000A9F79E3F510580F00C94CB0C0C94160DFA
:101970005F3FE4F3983ED4F3869577956795B795E6
:10198000F795E7959F5FC1F7FE2B880F911D969500
:10199000879597F9089597F99F6780E870E060E070
:1019A00008959FEF80EC089500240A9416161706F8
:1019B00018060906089500240A9412161306140640
:1019C00005060895092E0394000C11F4882352F0A3
:1019D000BB0F40F4BF2B11F460FF04C06F5F7F4F5B
:1019E0008F4F9F4F089557FD9058440F551F59F042
:1019F0005F3F71F04795880F97FB991F61F09F3FFC
:101A000079F087950895121613061406551FF2CF24
:101A10004695F1DF08C0161617061806991FF1CF74
:101A200086957105610508940895E894BB2766279B
:101A30007727CB0197F90895052E97FB1EF40094A4
:101A40000E94330D57FD07D00E94850D07FC03D07F
:101A50004EF40C94330D50954095309521953F4FA1
:101A60004F4F5F4F089590958095709561957F4F8A
:101A70008F4F9F4F08950E94A70DA59F900DB49F73
:101A8000900DA49F800D911D11240895B7FF0C9413
:101A90003B0D0E943B0D821B930B08952F923F92AA
:101AA0004F925F926F927F928F929F92AF92BF926E
:101AB000CF92DF92EF92FF920F931F93CF93DF931A
:101AC000CDB7DEB7CA1BDB0B0FB6F894DEBF0FBE77
:101AD000CDBF09942A88398848885F846E847D84C4
:101AE0008C849B84AA84B984C884DF80EE80FD80C6
:101AF0000C811B81AA81B981CE0FD11D0FB6F8943C
:101B0000DEBF0FBECDBFED010895A1E21A2EAA1BC4
:101B1000BB1BFD010DC0AA1FBB1FEE1FFF1FA2179D
:101B2000B307E407F50720F0A21BB30BE40BF50B9A
:101B3000661F771F881F991F1A9469F76095709523
:101B4000809590959B01AC01BD01CF010895A29FA6
:101B5000B001B39FC001A39F700D811D1124911D81
:101B6000B29F700D811D1124911D08950E94BD0D1D
:101B70006894B1110C94160D08950E94FB0C88F026
:101B80009F5798F0B92F9927B751B0F0E1F0660F41
:101B9000771F881F991F1AF0BA95C9F714C0B13082
:101BA00091F00E94150DB1E008950C94150D672F6A
:101BB000782F8827B85F39F0B93FCCF386957795B1
:101BC0006795B395D9F73EF490958095709561959A
:101BD0007F4F8F4F9F4F089597FB072E16F4009469
:101BE00007D077FD09D00E94000E07FC05D03EF417
:101BF000909581959F4F0895709561957F4F0895B9
:101C0000AA1BBB1B51E107C0AA1FBB1FA617B70722
:101C100010F0A61BB70B881F991F5A95A9F780953E
:101C20009095BC01CD010895EE0FFF1F0590F49132
:101C3000E02D09940F931F93CF93DF93823091058A
:101C400010F482E090E0E091A302F091A40230E071
:101C500020E0B0E0A0E0309799F42115310509F4B7
:101C60004AC0281B390B24303105D8F58A819B8165
:101C70006115710589F1FB0193838283FE0111C017
:101C8000408151810281138148175907E0F04817BC
:101C9000590799F4109761F012960C9312971396C6
:101CA0001C933296CF01DF91CF911F910F91089530
:101CB0000093A3021093A402F4CF2115310551F033
:101CC0004217530738F0A901DB019A01BD01DF017A
:101CD000F801C1CFEF01F9CF9093A4028093A30242
:101CE000CDCFFE01E20FF31F819391932250310972
:101CF00039832883D7CF2091A1023091A202232BD0
:101D000041F420910E0130910F013093A2022093F3
:101D1000A10220910C0130910D012115310541F4F2
:101D20002DB73EB74091100150911101241B350B86
:101D3000E091A102F091A202E217F307A0F42E1B9A
:101D40003F0B2817390778F0AC014E5F5F4F24171F
:101D5000350748F04E0F5F1F5093A2024093A10237
:101D6000819391939FCFF0E0E0E09CCFCF93DF93FE
:101D70000097E9F0FC01329713821282A091A3022E
:101D8000B091A402ED0130E020E01097A1F4208191
:101D90003181820F931F2091A1023091A202281756
:101DA000390709F061C0F093A202E093A102DF912C
:101DB000CF910895EA01CE17DF07E8F54A815B81EC
:101DC0009E0141155105B1F7E901FB83EA83499171
:101DD0005991C40FD51FEC17FD0761F480819181E3
:101DE0000296840F951FE9019983888382819381EC
:101DF0009B838A83F0E0E0E012968D919C9113978B
:101E00000097B9F52D913C911197CD010296820F63
:101E1000931F2091A1023091A2022817390739F6A9
:101E2000309751F51092A4021092A302B093A2022F
:101E3000A093A102BCCFD383C28340815181840F80
:101E4000951FC817D90761F44E5F5F4F888199814C
:101E5000480F591F518340838A819B8193838283DA
:101E60002115310509F0B0CFF093A402E093A3024D
:101E70009ECFFD01DC01C0CF13821282D7CFB0E02C
:101E8000A0E0E5E4FFE00C94500D8C01009751F4C4
:101E9000CB010E941A0E8C01C801CDB7DEB7E0E17C
:101EA0000C946C0DFC01E60FF71F9C0122503109C8
:101EB000E217F30708F49DC0D901CD91DC91119789
:101EC000C617D70798F0C530D10530F3CE01049777
:101ED0008617970708F3C61BD70B2297C193D19398
:101EE0006D937C93CF010E94B60ED6CF5B01AC1AE6
:101EF000BD0A4C018C0E9D1EA091A302B091A402BC
:101F0000512C412CF12CE12C109731F58091A1023C
:101F10009091A2028815990509F05CC046165706F3
:101F200008F058C080910C0190910D01009741F488
:101F30008DB79EB74091100150911101841B950BF4
:101F4000E817F90708F055C0F093A202E093A10248
:101F5000F90171836083A0CF8D919C9111971296A6
:101F60006C90129713967C901397A815B90559F5A4
:101F70006C0142E0C40ED11CCA14DB0420F1AC0198
:101F80004A195B09DA011296159780F06282738212
:101F900051834083D9016D937C93E114F10471F076
:101FA000D7011396FC93EE93129776CF22968C0F5F
:101FB0009D1FF90191838083F301EFCFF093A40279
:101FC000E093A30269CF4816590608F42C017D015D
:101FD000D3019ACFCB010E941A0E7C01009749F0E1
:101FE000AE01B8010E94FC0FC8010E94B60E870125
:101FF00053CF10E000E050CFFB01DC0102C00190A4
:102000000D9241505040D8F70895FB01DC0101903A
:102010000D920020E1F70895F894FFCF900107009A
:1020200002000300010000000000A5028000000083
:10203000400014005400000000004D022002630321
:10204000F60119020602F7010000000056046201C1
:1020500063038F014D6174726978204D6F766572EC
:10206000210053636F72653A20300053636F7265CD
:102070003A200047616D65204F766572210020206F
:0220800020003E
:107E0000112484B714BE81FFF0D085E080938100F7
:107E100082E08093C00088E18093C10086E0809377
:107E2000C20080E18093C4008EE0C9D0259A86E02C
:107E300020E33CEF91E0309385002093840096BBD3
:107E4000B09BFECF1D9AA8958150A9F7CC24DD24C4
:107E500088248394B5E0AB2EA1E19A2EF3E0BF2EE7
:107E6000A2D0813461F49FD0082FAFD0023811F036
:107E7000013811F484E001C083E08DD089C08234E0
:107E800011F484E103C0853419F485E0A6D080C0E4
:107E9000853579F488D0E82EFF2485D0082F10E0AE
:107EA000102F00270E291F29000F111F8ED06801E7
:107EB0006FC0863521F484E090D080E0DECF843638
:107EC00009F040C070D06FD0082F6DD080E0C81688
:107ED00080E7D80618F4F601B7BEE895C0E0D1E017
:107EE00062D089930C17E1F7F0E0CF16F0E7DF06D8
:107EF00018F0F601B7BEE89568D007B600FCFDCFD4
:107F0000A601A0E0B1E02C9130E011968C91119780
:107F100090E0982F8827822B932B1296FA010C0160
:107F200087BEE89511244E5F5F4FF1E0A038BF0790
:107F300051F7F601A7BEE89507B600FCFDCF97BE46
:107F4000E89526C08437B1F42ED02DD0F82E2BD052
:107F50003CD0F601EF2C8F010F5F1F4F84911BD097
:107F6000EA94F801C1F70894C11CD11CFA94CF0C13
:107F7000D11C0EC0853739F428D08EE10CD085E9AC
:107F80000AD08FE07ACF813511F488E018D01DD067
:107F900080E101D065CF982F8091C00085FFFCCF94
:107FA0009093C60008958091C00087FFFCCF809118
:107FB000C00084FD01C0A8958091C6000895E0E648
:107FC000F0E098E1908380830895EDDF803219F02E
:107FD00088E0F5DFFFCF84E1DECF1F93182FE3DFCA
:107FE0001150E9F7F2DF1F91089580E0E8DFEE27F6
:047FF000FF270994CA
:027FFE00040479
:00000001FF
